{
  "_format": "hh-sol-artifact-1",
  "contractName": "JettNFT",
  "sourceName": "contracts/MyEpicNFT.sol",
  "abi": [
    {
      "inputs": [],
      "stateMutability": "nonpayable",
      "type": "constructor"
    },
    {
      "anonymous": false,
      "inputs": [
        {
          "indexed": true,
          "internalType": "address",
          "name": "owner",
          "type": "address"
        },
        {
          "indexed": true,
          "internalType": "address",
          "name": "approved",
          "type": "address"
        },
        {
          "indexed": true,
          "internalType": "uint256",
          "name": "tokenId",
          "type": "uint256"
        }
      ],
      "name": "Approval",
      "type": "event"
    },
    {
      "anonymous": false,
      "inputs": [
        {
          "indexed": true,
          "internalType": "address",
          "name": "owner",
          "type": "address"
        },
        {
          "indexed": true,
          "internalType": "address",
          "name": "operator",
          "type": "address"
        },
        {
          "indexed": false,
          "internalType": "bool",
          "name": "approved",
          "type": "bool"
        }
      ],
      "name": "ApprovalForAll",
      "type": "event"
    },
    {
      "anonymous": false,
      "inputs": [
        {
          "indexed": true,
          "internalType": "address",
          "name": "from",
          "type": "address"
        },
        {
          "indexed": true,
          "internalType": "address",
          "name": "to",
          "type": "address"
        },
        {
          "indexed": true,
          "internalType": "uint256",
          "name": "tokenId",
          "type": "uint256"
        }
      ],
      "name": "Transfer",
      "type": "event"
    },
    {
      "inputs": [
        {
          "internalType": "address",
          "name": "to",
          "type": "address"
        },
        {
          "internalType": "uint256",
          "name": "tokenId",
          "type": "uint256"
        }
      ],
      "name": "approve",
      "outputs": [],
      "stateMutability": "nonpayable",
      "type": "function"
    },
    {
      "inputs": [
        {
          "internalType": "address",
          "name": "owner",
          "type": "address"
        }
      ],
      "name": "balanceOf",
      "outputs": [
        {
          "internalType": "uint256",
          "name": "",
          "type": "uint256"
        }
      ],
      "stateMutability": "view",
      "type": "function"
    },
    {
      "inputs": [
        {
          "internalType": "uint256",
          "name": "tokenId",
          "type": "uint256"
        }
      ],
      "name": "getApproved",
      "outputs": [
        {
          "internalType": "address",
          "name": "",
          "type": "address"
        }
      ],
      "stateMutability": "view",
      "type": "function"
    },
    {
      "inputs": [
        {
          "internalType": "address",
          "name": "owner",
          "type": "address"
        },
        {
          "internalType": "address",
          "name": "operator",
          "type": "address"
        }
      ],
      "name": "isApprovedForAll",
      "outputs": [
        {
          "internalType": "bool",
          "name": "",
          "type": "bool"
        }
      ],
      "stateMutability": "view",
      "type": "function"
    },
    {
      "inputs": [],
      "name": "makeAnEpicNFT",
      "outputs": [],
      "stateMutability": "nonpayable",
      "type": "function"
    },
    {
      "inputs": [],
      "name": "name",
      "outputs": [
        {
          "internalType": "string",
          "name": "",
          "type": "string"
        }
      ],
      "stateMutability": "view",
      "type": "function"
    },
    {
      "inputs": [
        {
          "internalType": "uint256",
          "name": "tokenId",
          "type": "uint256"
        }
      ],
      "name": "ownerOf",
      "outputs": [
        {
          "internalType": "address",
          "name": "",
          "type": "address"
        }
      ],
      "stateMutability": "view",
      "type": "function"
    },
    {
      "inputs": [
        {
          "internalType": "address",
          "name": "from",
          "type": "address"
        },
        {
          "internalType": "address",
          "name": "to",
          "type": "address"
        },
        {
          "internalType": "uint256",
          "name": "tokenId",
          "type": "uint256"
        }
      ],
      "name": "safeTransferFrom",
      "outputs": [],
      "stateMutability": "nonpayable",
      "type": "function"
    },
    {
      "inputs": [
        {
          "internalType": "address",
          "name": "from",
          "type": "address"
        },
        {
          "internalType": "address",
          "name": "to",
          "type": "address"
        },
        {
          "internalType": "uint256",
          "name": "tokenId",
          "type": "uint256"
        },
        {
          "internalType": "bytes",
          "name": "data",
          "type": "bytes"
        }
      ],
      "name": "safeTransferFrom",
      "outputs": [],
      "stateMutability": "nonpayable",
      "type": "function"
    },
    {
      "inputs": [
        {
          "internalType": "address",
          "name": "operator",
          "type": "address"
        },
        {
          "internalType": "bool",
          "name": "approved",
          "type": "bool"
        }
      ],
      "name": "setApprovalForAll",
      "outputs": [],
      "stateMutability": "nonpayable",
      "type": "function"
    },
    {
      "inputs": [
        {
          "internalType": "bytes4",
          "name": "interfaceId",
          "type": "bytes4"
        }
      ],
      "name": "supportsInterface",
      "outputs": [
        {
          "internalType": "bool",
          "name": "",
          "type": "bool"
        }
      ],
      "stateMutability": "view",
      "type": "function"
    },
    {
      "inputs": [],
      "name": "symbol",
      "outputs": [
        {
          "internalType": "string",
          "name": "",
          "type": "string"
        }
      ],
      "stateMutability": "view",
      "type": "function"
    },
    {
      "inputs": [
        {
          "internalType": "uint256",
          "name": "_tokenId",
          "type": "uint256"
        }
      ],
      "name": "tokenURI",
      "outputs": [
        {
          "internalType": "string",
          "name": "",
          "type": "string"
        }
      ],
      "stateMutability": "view",
      "type": "function"
    },
    {
      "inputs": [
        {
          "internalType": "address",
          "name": "from",
          "type": "address"
        },
        {
          "internalType": "address",
          "name": "to",
          "type": "address"
        },
        {
          "internalType": "uint256",
          "name": "tokenId",
          "type": "uint256"
        }
      ],
      "name": "transferFrom",
      "outputs": [],
      "stateMutability": "nonpayable",
      "type": "function"
    }
  ],
  "bytecode": "0x60806040523480156200001157600080fd5b506040518060400160405280600981526020017f4861746861636f6e7300000000000000000000000000000000000000000000008152506040518060400160405280600481526020017f476f6f640000000000000000000000000000000000000000000000000000000081525081600090816200008f919062000433565b508060019081620000a1919062000433565b505050620000ef6040518060400160405280601e81526020017f54686973206973206d79204e465420636f6e74726163742e20576f6168210000815250620000f560201b620009a21760201c565b620005cd565b62000195816040516024016200010c9190620005a9565b6040516020818303038152906040527f41304fac000000000000000000000000000000000000000000000000000000007bffffffffffffffffffffffffffffffffffffffffffffffffffffffff19166020820180517bffffffffffffffffffffffffffffffffffffffffffffffffffffffff83818316178352505050506200019860201b60201c565b50565b60006a636f6e736f6c652e6c6f679050600080835160208501845afa505050565b600081519050919050565b7f4e487b7100000000000000000000000000000000000000000000000000000000600052604160045260246000fd5b7f4e487b7100000000000000000000000000000000000000000000000000000000600052602260045260246000fd5b600060028204905060018216806200023b57607f821691505b602082108103620002515762000250620001f3565b5b50919050565b60008190508160005260206000209050919050565b60006020601f8301049050919050565b600082821b905092915050565b600060088302620002bb7fffffffffffffffffffffffffffffffffffffffffffffffffffffffffffffffff826200027c565b620002c786836200027c565b95508019841693508086168417925050509392505050565b6000819050919050565b6000819050919050565b6000620003146200030e6200030884620002df565b620002e9565b620002df565b9050919050565b6000819050919050565b6200033083620002f3565b620003486200033f826200031b565b84845462000289565b825550505050565b600090565b6200035f62000350565b6200036c81848462000325565b505050565b5b8181101562000394576200038860008262000355565b60018101905062000372565b5050565b601f821115620003e357620003ad8162000257565b620003b8846200026c565b81016020851015620003c8578190505b620003e0620003d7856200026c565b83018262000371565b50505b505050565b600082821c905092915050565b60006200040860001984600802620003e8565b1980831691505092915050565b6000620004238383620003f5565b9150826002028217905092915050565b6200043e82620001b9565b67ffffffffffffffff8111156200045a5762000459620001c4565b5b62000466825462000222565b6200047382828562000398565b600060209050601f831160018114620004ab576000841562000496578287015190505b620004a2858262000415565b86555062000512565b601f198416620004bb8662000257565b60005b82811015620004e557848901518255600182019150602085019450602081019050620004be565b8683101562000505578489015162000501601f891682620003f5565b8355505b6001600288020188555050505b505050505050565b600082825260208201905092915050565b60005b838110156200054b5780820151818401526020810190506200052e565b60008484015250505050565b6000601f19601f8301169050919050565b60006200057582620001b9565b6200058181856200051a565b9350620005938185602086016200052b565b6200059e8162000557565b840191505092915050565b60006020820190508181036000830152620005c5818462000568565b905092915050565b612a4780620005dd6000396000f3fe608060405234801561001057600080fd5b50600436106100ea5760003560e01c806370a082311161008c578063b88d4fde11610066578063b88d4fde1461025b578063c87b56dd14610277578063de9d132f146102a7578063e985e9c5146102b1576100ea565b806370a08231146101f157806395d89b4114610221578063a22cb4651461023f576100ea565b8063095ea7b3116100c8578063095ea7b31461016d57806323b872dd1461018957806342842e0e146101a55780636352211e146101c1576100ea565b806301ffc9a7146100ef57806306fdde031461011f578063081812fc1461013d575b600080fd5b61010960048036038101906101049190611a43565b6102e1565b6040516101169190611a8b565b60405180910390f35b6101276103c3565b6040516101349190611b36565b60405180910390f35b61015760048036038101906101529190611b8e565b610455565b6040516101649190611bfc565b60405180910390f35b61018760048036038101906101829190611c43565b61049b565b005b6101a3600480360381019061019e9190611c83565b6105b2565b005b6101bf60048036038101906101ba9190611c83565b610612565b005b6101db60048036038101906101d69190611b8e565b610632565b6040516101e89190611bfc565b60405180910390f35b61020b60048036038101906102069190611cd6565b6106b8565b6040516102189190611d12565b60405180910390f35b61022961076f565b6040516102369190611b36565b60405180910390f35b61025960048036038101906102549190611d59565b610801565b005b61027560048036038101906102709190611ece565b610817565b005b610291600480360381019061028c9190611b8e565b610879565b60405161029e9190611b36565b60405180910390f35b6102af6108df565b005b6102cb60048036038101906102c69190611f51565b61090e565b6040516102d89190611a8b565b60405180910390f35b60007f80ac58cd000000000000000000000000000000000000000000000000000000007bffffffffffffffffffffffffffffffffffffffffffffffffffffffff1916827bffffffffffffffffffffffffffffffffffffffffffffffffffffffff191614806103ac57507f5b5e139f000000000000000000000000000000000000000000000000000000007bffffffffffffffffffffffffffffffffffffffffffffffffffffffff1916827bffffffffffffffffffffffffffffffffffffffffffffffffffffffff1916145b806103bc57506103bb82610a3b565b5b9050919050565b6060600080546103d290611fc0565b80601f01602080910402602001604051908101604052809291908181526020018280546103fe90611fc0565b801561044b5780601f106104205761010080835404028352916020019161044b565b820191906000526020600020905b81548152906001019060200180831161042e57829003601f168201915b5050505050905090565b600061046082610aa5565b6004600083815260200190815260200160002060009054906101000a900473ffffffffffffffffffffffffffffffffffffffff169050919050565b60006104a682610632565b90508073ffffffffffffffffffffffffffffffffffffffff168373ffffffffffffffffffffffffffffffffffffffff1603610516576040517f08c379a000000000000000000000000000000000000000000000000000000000815260040161050d90612063565b60405180910390fd5b8073ffffffffffffffffffffffffffffffffffffffff16610535610af0565b73ffffffffffffffffffffffffffffffffffffffff16148061056457506105638161055e610af0565b61090e565b5b6105a3576040517f08c379a000000000000000000000000000000000000000000000000000000000815260040161059a906120f5565b60405180910390fd5b6105ad8383610af8565b505050565b6105c36105bd610af0565b82610bb1565b610602576040517f08c379a00000000000000000000000000000000000000000000000000000000081526004016105f990612187565b60405180910390fd5b61060d838383610c46565b505050565b61062d83838360405180602001604052806000815250610817565b505050565b60008061063e83610f3f565b9050600073ffffffffffffffffffffffffffffffffffffffff168173ffffffffffffffffffffffffffffffffffffffff16036106af576040517f08c379a00000000000000000000000000000000000000000000000000000000081526004016106a6906121f3565b60405180910390fd5b80915050919050565b60008073ffffffffffffffffffffffffffffffffffffffff168273ffffffffffffffffffffffffffffffffffffffff1603610728576040517f08c379a000000000000000000000000000000000000000000000000000000000815260040161071f90612285565b60405180910390fd5b600360008373ffffffffffffffffffffffffffffffffffffffff1673ffffffffffffffffffffffffffffffffffffffff168152602001908152602001600020549050919050565b60606001805461077e90611fc0565b80601f01602080910402602001604051908101604052809291908181526020018280546107aa90611fc0565b80156107f75780601f106107cc576101008083540402835291602001916107f7565b820191906000526020600020905b8154815290600101906020018083116107da57829003601f168201915b5050505050905090565b61081361080c610af0565b8383610f7c565b5050565b610828610822610af0565b83610bb1565b610867576040517f08c379a000000000000000000000000000000000000000000000000000000000815260040161085e90612187565b60405180910390fd5b610873848484846110e8565b50505050565b606061088482611144565b61088d57600080fd5b600060405160200161089e906123ba565b60405160208183030381529060405290506108b881611185565b6040516020016108c89190612462565b604051602081830303815290604052915050919050565b60006108eb6006611495565b90506108f733826114a3565b61090081610879565b5061090b60066114c1565b50565b6000600560008473ffffffffffffffffffffffffffffffffffffffff1673ffffffffffffffffffffffffffffffffffffffff16815260200190815260200160002060008373ffffffffffffffffffffffffffffffffffffffff1673ffffffffffffffffffffffffffffffffffffffff16815260200190815260200160002060009054906101000a900460ff16905092915050565b610a38816040516024016109b69190611b36565b6040516020818303038152906040527f41304fac000000000000000000000000000000000000000000000000000000007bffffffffffffffffffffffffffffffffffffffffffffffffffffffff19166020820180517bffffffffffffffffffffffffffffffffffffffffffffffffffffffff83818316178352505050506114d7565b50565b60007f01ffc9a7000000000000000000000000000000000000000000000000000000007bffffffffffffffffffffffffffffffffffffffffffffffffffffffff1916827bffffffffffffffffffffffffffffffffffffffffffffffffffffffff1916149050919050565b610aae81611144565b610aed576040517f08c379a0000000000000000000000000000000000000000000000000000000008152600401610ae4906121f3565b60405180910390fd5b50565b600033905090565b816004600083815260200190815260200160002060006101000a81548173ffffffffffffffffffffffffffffffffffffffff021916908373ffffffffffffffffffffffffffffffffffffffff160217905550808273ffffffffffffffffffffffffffffffffffffffff16610b6b83610632565b73ffffffffffffffffffffffffffffffffffffffff167f8c5be1e5ebec7d5bd14f71427d1e84f3dd0314c0f7b2291e5b200ac8c7c3b92560405160405180910390a45050565b600080610bbd83610632565b90508073ffffffffffffffffffffffffffffffffffffffff168473ffffffffffffffffffffffffffffffffffffffff161480610bff5750610bfe818561090e565b5b80610c3d57508373ffffffffffffffffffffffffffffffffffffffff16610c2584610455565b73ffffffffffffffffffffffffffffffffffffffff16145b91505092915050565b8273ffffffffffffffffffffffffffffffffffffffff16610c6682610632565b73ffffffffffffffffffffffffffffffffffffffff1614610cbc576040517f08c379a0000000000000000000000000000000000000000000000000000000008152600401610cb3906124f6565b60405180910390fd5b600073ffffffffffffffffffffffffffffffffffffffff168273ffffffffffffffffffffffffffffffffffffffff1603610d2b576040517f08c379a0000000000000000000000000000000000000000000000000000000008152600401610d2290612588565b60405180910390fd5b610d3883838360016114f8565b8273ffffffffffffffffffffffffffffffffffffffff16610d5882610632565b73ffffffffffffffffffffffffffffffffffffffff1614610dae576040517f08c379a0000000000000000000000000000000000000000000000000000000008152600401610da5906124f6565b60405180910390fd5b6004600082815260200190815260200160002060006101000a81549073ffffffffffffffffffffffffffffffffffffffff02191690556001600360008573ffffffffffffffffffffffffffffffffffffffff1673ffffffffffffffffffffffffffffffffffffffff168152602001908152602001600020600082825403925050819055506001600360008473ffffffffffffffffffffffffffffffffffffffff1673ffffffffffffffffffffffffffffffffffffffff16815260200190815260200160002060008282540192505081905550816002600083815260200190815260200160002060006101000a81548173ffffffffffffffffffffffffffffffffffffffff021916908373ffffffffffffffffffffffffffffffffffffffff160217905550808273ffffffffffffffffffffffffffffffffffffffff168473ffffffffffffffffffffffffffffffffffffffff167fddf252ad1be2c89b69c2b068fc378daa952ba7f163c4a11628f55a4df523b3ef60405160405180910390a4610f3a83838360016114fe565b505050565b60006002600083815260200190815260200160002060009054906101000a900473ffffffffffffffffffffffffffffffffffffffff169050919050565b8173ffffffffffffffffffffffffffffffffffffffff168373ffffffffffffffffffffffffffffffffffffffff1603610fea576040517f08c379a0000000000000000000000000000000000000000000000000000000008152600401610fe1906125f4565b60405180910390fd5b80600560008573ffffffffffffffffffffffffffffffffffffffff1673ffffffffffffffffffffffffffffffffffffffff16815260200190815260200160002060008473ffffffffffffffffffffffffffffffffffffffff1673ffffffffffffffffffffffffffffffffffffffff16815260200190815260200160002060006101000a81548160ff0219169083151502179055508173ffffffffffffffffffffffffffffffffffffffff168373ffffffffffffffffffffffffffffffffffffffff167f17307eab39ab6107e8899845ad3d59bd9653f200f220920489ca2b5937696c31836040516110db9190611a8b565b60405180910390a3505050565b6110f3848484610c46565b6110ff84848484611504565b61113e576040517f08c379a000000000000000000000000000000000000000000000000000000000815260040161113590612686565b60405180910390fd5b50505050565b60008073ffffffffffffffffffffffffffffffffffffffff1661116683610f3f565b73ffffffffffffffffffffffffffffffffffffffff1614159050919050565b60606000829050600081519050600061119d8261168b565b905060008167ffffffffffffffff8111156111bb576111ba611da3565b5b6040519080825280601f01601f1916602001820160405280156111ed5781602001600182028036833780820191505090505b5090506000805b84811015611487576000818661120a91906126d5565b90506000600382106112ab57876002846112249190612709565b815181106112355761123461273d565b5b602001015160f81c60f81b60f81c60ff166008896001866112569190612709565b815181106112675761126661273d565b5b602001015160f81c60f81b60f81c60ff16901b60108a868151811061128f5761128e61273d565b5b602001015160f81c60f81b60f81c60ff16901b1717905061134c565b60028203611317576008886001856112c39190612709565b815181106112d4576112d361273d565b5b602001015160f81c60f81b60f81c60ff16901b60108985815181106112fc576112fb61273d565b5b602001015160f81c60f81b60f81c60ff16901b17905061134b565b6001820361134a5760108884815181106113345761133361273d565b5b602001015160f81c60f81b60f81c60ff16901b90505b5b5b60005b600481101561146157828111156113d3577f3d0000000000000000000000000000000000000000000000000000000000000086828761138e9190612709565b8151811061139f5761139e61273d565b5b60200101907effffffffffffffffffffffffffffffffffffffffffffffffffffffffffffff1916908160001a90535061144e565b6000603f60068360036113e691906126d5565b6113f0919061276c565b84901c1690506113ff816116b9565b87838861140c9190612709565b8151811061141d5761141c61273d565b5b60200101907effffffffffffffffffffffffffffffffffffffffffffffffffffffffffffff1916908160001a905350505b8080611459906127ae565b91505061134f565b5060038361146f9190612709565b925060048461147e9190612709565b935050506111f4565b829650505050505050919050565b600081600001549050919050565b6114bd82826040518060200160405280600081525061173c565b5050565b6001816000016000828254019250508190555050565b60006a636f6e736f6c652e6c6f679050600080835160208501845afa505050565b50505050565b50505050565b60006115258473ffffffffffffffffffffffffffffffffffffffff16611797565b1561167e578373ffffffffffffffffffffffffffffffffffffffff1663150b7a0261154e610af0565b8786866040518563ffffffff1660e01b8152600401611570949392919061284b565b6020604051808303816000875af19250505080156115ac57506040513d601f19601f820116820180604052508101906115a991906128ac565b60015b61162e573d80600081146115dc576040519150601f19603f3d011682016040523d82523d6000602084013e6115e1565b606091505b506000815103611626576040517f08c379a000000000000000000000000000000000000000000000000000000000815260040161161d90612686565b60405180910390fd5b805181602001fd5b63150b7a0260e01b7bffffffffffffffffffffffffffffffffffffffffffffffffffffffff1916817bffffffffffffffffffffffffffffffffffffffffffffffffffffffff191614915050611683565b600190505b949350505050565b60006004600360028461169e9190612709565b6116a89190612908565b6116b2919061276c565b9050919050565b6000601a8210156116db576041826116d19190612709565b60f81b9050611737565b60348210156116fb576047826116f19190612709565b60f81b9050611737565b603e82101561171b5760048261171191906126d5565b60f81b9050611737565b603e820361172f57602b60f81b9050611737565b602f60f81b90505b919050565b61174683836117ba565b6117536000848484611504565b611792576040517f08c379a000000000000000000000000000000000000000000000000000000000815260040161178990612686565b60405180910390fd5b505050565b6000808273ffffffffffffffffffffffffffffffffffffffff163b119050919050565b600073ffffffffffffffffffffffffffffffffffffffff168273ffffffffffffffffffffffffffffffffffffffff1603611829576040517f08c379a000000000000000000000000000000000000000000000000000000000815260040161182090612985565b60405180910390fd5b61183281611144565b15611872576040517f08c379a0000000000000000000000000000000000000000000000000000000008152600401611869906129f1565b60405180910390fd5b6118806000838360016114f8565b61188981611144565b156118c9576040517f08c379a00000000000000000000000000000000000000000000000000000000081526004016118c0906129f1565b60405180910390fd5b6001600360008473ffffffffffffffffffffffffffffffffffffffff1673ffffffffffffffffffffffffffffffffffffffff16815260200190815260200160002060008282540192505081905550816002600083815260200190815260200160002060006101000a81548173ffffffffffffffffffffffffffffffffffffffff021916908373ffffffffffffffffffffffffffffffffffffffff160217905550808273ffffffffffffffffffffffffffffffffffffffff16600073ffffffffffffffffffffffffffffffffffffffff167fddf252ad1be2c89b69c2b068fc378daa952ba7f163c4a11628f55a4df523b3ef60405160405180910390a46119d36000838360016114fe565b5050565b6000604051905090565b600080fd5b600080fd5b60007fffffffff0000000000000000000000000000000000000000000000000000000082169050919050565b611a20816119eb565b8114611a2b57600080fd5b50565b600081359050611a3d81611a17565b92915050565b600060208284031215611a5957611a586119e1565b5b6000611a6784828501611a2e565b91505092915050565b60008115159050919050565b611a8581611a70565b82525050565b6000602082019050611aa06000830184611a7c565b92915050565b600081519050919050565b600082825260208201905092915050565b60005b83811015611ae0578082015181840152602081019050611ac5565b60008484015250505050565b6000601f19601f8301169050919050565b6000611b0882611aa6565b611b128185611ab1565b9350611b22818560208601611ac2565b611b2b81611aec565b840191505092915050565b60006020820190508181036000830152611b508184611afd565b905092915050565b6000819050919050565b611b6b81611b58565b8114611b7657600080fd5b50565b600081359050611b8881611b62565b92915050565b600060208284031215611ba457611ba36119e1565b5b6000611bb284828501611b79565b91505092915050565b600073ffffffffffffffffffffffffffffffffffffffff82169050919050565b6000611be682611bbb565b9050919050565b611bf681611bdb565b82525050565b6000602082019050611c116000830184611bed565b92915050565b611c2081611bdb565b8114611c2b57600080fd5b50565b600081359050611c3d81611c17565b92915050565b60008060408385031215611c5a57611c596119e1565b5b6000611c6885828601611c2e565b9250506020611c7985828601611b79565b9150509250929050565b600080600060608486031215611c9c57611c9b6119e1565b5b6000611caa86828701611c2e565b9350506020611cbb86828701611c2e565b9250506040611ccc86828701611b79565b9150509250925092565b600060208284031215611cec57611ceb6119e1565b5b6000611cfa84828501611c2e565b91505092915050565b611d0c81611b58565b82525050565b6000602082019050611d276000830184611d03565b92915050565b611d3681611a70565b8114611d4157600080fd5b50565b600081359050611d5381611d2d565b92915050565b60008060408385031215611d7057611d6f6119e1565b5b6000611d7e85828601611c2e565b9250506020611d8f85828601611d44565b9150509250929050565b600080fd5b600080fd5b7f4e487b7100000000000000000000000000000000000000000000000000000000600052604160045260246000fd5b611ddb82611aec565b810181811067ffffffffffffffff82111715611dfa57611df9611da3565b5b80604052505050565b6000611e0d6119d7565b9050611e198282611dd2565b919050565b600067ffffffffffffffff821115611e3957611e38611da3565b5b611e4282611aec565b9050602081019050919050565b82818337600083830152505050565b6000611e71611e6c84611e1e565b611e03565b905082815260208101848484011115611e8d57611e8c611d9e565b5b611e98848285611e4f565b509392505050565b600082601f830112611eb557611eb4611d99565b5b8135611ec5848260208601611e5e565b91505092915050565b60008060008060808587031215611ee857611ee76119e1565b5b6000611ef687828801611c2e565b9450506020611f0787828801611c2e565b9350506040611f1887828801611b79565b925050606085013567ffffffffffffffff811115611f3957611f386119e6565b5b611f4587828801611ea0565b91505092959194509250565b60008060408385031215611f6857611f676119e1565b5b6000611f7685828601611c2e565b9250506020611f8785828601611c2e565b9150509250929050565b7f4e487b7100000000000000000000000000000000000000000000000000000000600052602260045260246000fd5b60006002820490506001821680611fd857607f821691505b602082108103611feb57611fea611f91565b5b50919050565b7f4552433732313a20617070726f76616c20746f2063757272656e74206f776e6560008201527f7200000000000000000000000000000000000000000000000000000000000000602082015250565b600061204d602183611ab1565b915061205882611ff1565b604082019050919050565b6000602082019050818103600083015261207c81612040565b9050919050565b7f4552433732313a20617070726f76652063616c6c6572206973206e6f7420746f60008201527f6b656e206f776e6572206f7220617070726f76656420666f7220616c6c000000602082015250565b60006120df603d83611ab1565b91506120ea82612083565b604082019050919050565b6000602082019050818103600083015261210e816120d2565b9050919050565b7f4552433732313a2063616c6c6572206973206e6f7420746f6b656e206f776e6560008201527f72206f7220617070726f76656400000000000000000000000000000000000000602082015250565b6000612171602d83611ab1565b915061217c82612115565b604082019050919050565b600060208201905081810360008301526121a081612164565b9050919050565b7f4552433732313a20696e76616c696420746f6b656e2049440000000000000000600082015250565b60006121dd601883611ab1565b91506121e8826121a7565b602082019050919050565b6000602082019050818103600083015261220c816121d0565b9050919050565b7f4552433732313a2061646472657373207a65726f206973206e6f74206120766160008201527f6c6964206f776e65720000000000000000000000000000000000000000000000602082015250565b600061226f602983611ab1565b915061227a82612213565b604082019050919050565b6000602082019050818103600083015261229e81612262565b9050919050565b600081905092915050565b7f7b226e616d65223a20224a657474204775707461222c20000000000000000000600082015250565b60006122e66017836122a5565b91506122f1826122b0565b601782019050919050565b7f226465736372697074696f6e223a20224d6572692062697769222c2000000000600082015250565b6000612332601c836122a5565b915061233d826122fc565b601c82019050919050565b7f22696d616765223a202268747470733a2f2f692e696d6775722e636f6d2f303060008201527f41743544502e706e67227d000000000000000000000000000000000000000000602082015250565b60006123a4602b836122a5565b91506123af82612348565b602b82019050919050565b60006123c5826122d9565b91506123d082612325565b91506123db82612397565b9150819050919050565b7f646174613a6170706c69636174696f6e2f6a736f6e3b6261736536342c000000600082015250565b600061241b601d836122a5565b9150612426826123e5565b601d82019050919050565b600061243c82611aa6565b61244681856122a5565b9350612456818560208601611ac2565b80840191505092915050565b600061246d8261240e565b91506124798284612431565b915081905092915050565b7f4552433732313a207472616e736665722066726f6d20696e636f72726563742060008201527f6f776e6572000000000000000000000000000000000000000000000000000000602082015250565b60006124e0602583611ab1565b91506124eb82612484565b604082019050919050565b6000602082019050818103600083015261250f816124d3565b9050919050565b7f4552433732313a207472616e7366657220746f20746865207a65726f2061646460008201527f7265737300000000000000000000000000000000000000000000000000000000602082015250565b6000612572602483611ab1565b915061257d82612516565b604082019050919050565b600060208201905081810360008301526125a181612565565b9050919050565b7f4552433732313a20617070726f766520746f2063616c6c657200000000000000600082015250565b60006125de601983611ab1565b91506125e9826125a8565b602082019050919050565b6000602082019050818103600083015261260d816125d1565b9050919050565b7f4552433732313a207472616e7366657220746f206e6f6e20455243373231526560008201527f63656976657220696d706c656d656e7465720000000000000000000000000000602082015250565b6000612670603283611ab1565b915061267b82612614565b604082019050919050565b6000602082019050818103600083015261269f81612663565b9050919050565b7f4e487b7100000000000000000000000000000000000000000000000000000000600052601160045260246000fd5b60006126e082611b58565b91506126eb83611b58565b9250828203905081811115612703576127026126a6565b5b92915050565b600061271482611b58565b915061271f83611b58565b9250828201905080821115612737576127366126a6565b5b92915050565b7f4e487b7100000000000000000000000000000000000000000000000000000000600052603260045260246000fd5b600061277782611b58565b915061278283611b58565b925082820261279081611b58565b915082820484148315176127a7576127a66126a6565b5b5092915050565b60006127b982611b58565b91507fffffffffffffffffffffffffffffffffffffffffffffffffffffffffffffffff82036127eb576127ea6126a6565b5b600182019050919050565b600081519050919050565b600082825260208201905092915050565b600061281d826127f6565b6128278185612801565b9350612837818560208601611ac2565b61284081611aec565b840191505092915050565b60006080820190506128606000830187611bed565b61286d6020830186611bed565b61287a6040830185611d03565b818103606083015261288c8184612812565b905095945050505050565b6000815190506128a681611a17565b92915050565b6000602082840312156128c2576128c16119e1565b5b60006128d084828501612897565b91505092915050565b7f4e487b7100000000000000000000000000000000000000000000000000000000600052601260045260246000fd5b600061291382611b58565b915061291e83611b58565b92508261292e5761292d6128d9565b5b828204905092915050565b7f4552433732313a206d696e7420746f20746865207a65726f2061646472657373600082015250565b600061296f602083611ab1565b915061297a82612939565b602082019050919050565b6000602082019050818103600083015261299e81612962565b9050919050565b7f4552433732313a20746f6b656e20616c7265616479206d696e74656400000000600082015250565b60006129db601c83611ab1565b91506129e6826129a5565b602082019050919050565b60006020820190508181036000830152612a0a816129ce565b905091905056fea2646970667358221220dee3bfcbd3177c46e6c09a193b29f20996a5f587369e9bf1cc4ad929763e241564736f6c63430008110033",
  "linkReferences": {},
  "deployedLinkReferences": {}
}